:020000040000FA
:10000000012874205D206D203220242019205320E7
:10001000A41C072887205320A4181028662007282E
:100020004B20242087205320A418102819203E207C
:1000300007280708A1002110A11020182114A018DA
:10004000A1142108870008000708A1002112A112AD
:1000500020182116A018A1162108870008000712F1
:1000600087120800831603139B011C141A088312BD
:100070000313033903190130A00008002008831678
:1000800003139A001C1555309D00AA309D009C1446
:10009000831203130800A00B4F280330A000200890
:1000A0000339A0000800A4016120251C08008C2051
:1000B0006120251C0800A4140800A6010518A61438
:1000C00008000508A618013AA50008006A20872044
:1000D0006D200800A61872287028A61870287228AB
:1000E00007150800071108008312850187010730F2
:1000F00099008B018316850105148701113090004A
:10010000950115148101811383120B100800A301BE
:100110008C20A30B88280800A2010000000000002A
:1001200000000000000000000000A20B8D28080065
:040130000034003463
:02400E00C43FAD
:00000001FF
